{
  "contractName": "Voting",
  "abi": [
    {
      "inputs": [
        {
          "internalType": "string",
          "name": "_name",
          "type": "string"
        },
        {
          "internalType": "uint256",
          "name": "_duration",
          "type": "uint256"
        }
      ],
      "stateMutability": "nonpayable",
      "type": "constructor"
    },
    {
      "inputs": [
        {
          "internalType": "uint256",
          "name": "",
          "type": "uint256"
        }
      ],
      "name": "candidates",
      "outputs": [
        {
          "internalType": "uint256",
          "name": "id",
          "type": "uint256"
        },
        {
          "internalType": "string",
          "name": "name",
          "type": "string"
        },
        {
          "internalType": "uint256",
          "name": "voteCount",
          "type": "uint256"
        }
      ],
      "stateMutability": "view",
      "type": "function",
      "constant": true
    },
    {
      "inputs": [],
      "name": "electionName",
      "outputs": [
        {
          "internalType": "string",
          "name": "",
          "type": "string"
        }
      ],
      "stateMutability": "view",
      "type": "function",
      "constant": true
    },
    {
      "inputs": [],
      "name": "endTime",
      "outputs": [
        {
          "internalType": "uint256",
          "name": "",
          "type": "uint256"
        }
      ],
      "stateMutability": "view",
      "type": "function",
      "constant": true
    },
    {
      "inputs": [],
      "name": "owner",
      "outputs": [
        {
          "internalType": "address",
          "name": "",
          "type": "address"
        }
      ],
      "stateMutability": "view",
      "type": "function",
      "constant": true
    },
    {
      "inputs": [],
      "name": "startTime",
      "outputs": [
        {
          "internalType": "uint256",
          "name": "",
          "type": "uint256"
        }
      ],
      "stateMutability": "view",
      "type": "function",
      "constant": true
    },
    {
      "inputs": [],
      "name": "totalVotes",
      "outputs": [
        {
          "internalType": "uint256",
          "name": "",
          "type": "uint256"
        }
      ],
      "stateMutability": "view",
      "type": "function",
      "constant": true
    },
    {
      "inputs": [
        {
          "internalType": "address",
          "name": "",
          "type": "address"
        }
      ],
      "name": "voters",
      "outputs": [
        {
          "internalType": "bool",
          "name": "authorized",
          "type": "bool"
        },
        {
          "internalType": "bool",
          "name": "voted",
          "type": "bool"
        },
        {
          "internalType": "uint256",
          "name": "vote",
          "type": "uint256"
        }
      ],
      "stateMutability": "view",
      "type": "function",
      "constant": true
    },
    {
      "inputs": [
        {
          "internalType": "string",
          "name": "_name",
          "type": "string"
        }
      ],
      "name": "addCandidate",
      "outputs": [],
      "stateMutability": "nonpayable",
      "type": "function"
    },
    {
      "inputs": [],
      "name": "getNumCandidates",
      "outputs": [
        {
          "internalType": "uint256",
          "name": "",
          "type": "uint256"
        }
      ],
      "stateMutability": "view",
      "type": "function",
      "constant": true
    },
    {
      "inputs": [
        {
          "internalType": "address",
          "name": "_person",
          "type": "address"
        }
      ],
      "name": "authorize",
      "outputs": [],
      "stateMutability": "nonpayable",
      "type": "function"
    },
    {
      "inputs": [
        {
          "internalType": "uint256",
          "name": "_candidateId",
          "type": "uint256"
        }
      ],
      "name": "vote",
      "outputs": [],
      "stateMutability": "nonpayable",
      "type": "function"
    },
    {
      "inputs": [],
      "name": "end",
      "outputs": [],
      "stateMutability": "nonpayable",
      "type": "function"
    }
  ],
  "bytecode": "0x60806040523480156200001157600080fd5b50604051620014a8380380620014a88339818101604052810190620000379190620001ec565b336000806101000a81548173ffffffffffffffffffffffffffffffffffffffff021916908373ffffffffffffffffffffffffffffffffffffffff16021790555081600190805190602001906200008f929190620000b3565b50426002819055508042620000a59190620002ad565b600381905550505062000427565b828054620000c1906200034a565b90600052602060002090601f016020900481019282620000e5576000855562000131565b82601f106200010057805160ff191683800117855562000131565b8280016001018555821562000131579182015b828111156200013057825182559160200191906001019062000113565b5b50905062000140919062000144565b5090565b5b808211156200015f57600081600090555060010162000145565b5090565b60006200017a62000174846200027a565b62000246565b9050828152602081018484840111156200019357600080fd5b620001a084828562000314565b509392505050565b600082601f830112620001ba57600080fd5b8151620001cc84826020860162000163565b91505092915050565b600081519050620001e6816200040d565b92915050565b600080604083850312156200020057600080fd5b600083015167ffffffffffffffff8111156200021b57600080fd5b6200022985828601620001a8565b92505060206200023c85828601620001d5565b9150509250929050565b6000604051905081810181811067ffffffffffffffff8211171562000270576200026f620003de565b5b8060405250919050565b600067ffffffffffffffff821115620002985762000297620003de565b5b601f19601f8301169050602081019050919050565b6000620002ba826200030a565b9150620002c7836200030a565b9250827fffffffffffffffffffffffffffffffffffffffffffffffffffffffffffffffff03821115620002ff57620002fe62000380565b5b828201905092915050565b6000819050919050565b60005b838110156200033457808201518184015260208101905062000317565b8381111562000344576000848401525b50505050565b600060028204905060018216806200036357607f821691505b602082108114156200037a5762000379620003af565b5b50919050565b7f4e487b7100000000000000000000000000000000000000000000000000000000600052601160045260246000fd5b7f4e487b7100000000000000000000000000000000000000000000000000000000600052602260045260246000fd5b7f4e487b7100000000000000000000000000000000000000000000000000000000600052604160045260246000fd5b62000418816200030a565b81146200042457600080fd5b50565b61107180620004376000396000f3fe608060405234801561001057600080fd5b50600436106100b45760003560e01c806378e979251161007157806378e979251461017d57806385e8e7a71461019b5780638da5cb5b146101b9578063a3ec138d146101d7578063b6a5d7de14610209578063efbe1c1c14610225576100b4565b80630121b93f146100b95780630d15fd77146100d55780633197cbb6146100f35780633477ee2e14610111578063462e91ec146101435780635c06b06e1461015f575b600080fd5b6100d360048036038101906100ce9190610a58565b61022f565b005b6100dd610456565b6040516100ea9190610d87565b60405180910390f35b6100fb61045c565b6040516101089190610d87565b60405180910390f35b61012b60048036038101906101269190610a58565b610462565b60405161013a93929190610da2565b60405180910390f35b61015d60048036038101906101589190610a17565b610524565b005b610167610634565b6040516101749190610d87565b60405180910390f35b610185610641565b6040516101929190610d87565b60405180910390f35b6101a3610647565b6040516101b09190610cc5565b60405180910390f35b6101c16106d5565b6040516101ce9190610c73565b60405180910390f35b6101f160048036038101906101ec91906109ee565b6106f9565b60405161020093929190610c8e565b60405180910390f35b610223600480360381019061021e91906109ee565b61073d565b005b61022d610829565b005b600254421015801561024357506003544211155b610282576040517f08c379a000000000000000000000000000000000000000000000000000000000815260040161027990610d27565b60405180910390fd5b6000600460003373ffffffffffffffffffffffffffffffffffffffff1673ffffffffffffffffffffffffffffffffffffffff16815260200190815260200160002090508060000160019054906101000a900460ff1615610317576040517f08c379a000000000000000000000000000000000000000000000000000000000815260040161030e90610d07565b60405180910390fd5b8060000160009054906101000a900460ff16610368576040517f08c379a000000000000000000000000000000000000000000000000000000000815260040161035f90610d47565b60405180910390fd5b60058054905082106103af576040517f08c379a00000000000000000000000000000000000000000000000000000000081526004016103a690610ce7565b60405180910390fd5b60018160000160016101000a81548160ff021916908315150217905550818160010181905550600160058381548110610411577f4e487b7100000000000000000000000000000000000000000000000000000000600052603260045260246000fd5b906000526020600020906003020160020160008282546104319190610e5d565b9250508190555060016006600082825461044b9190610e5d565b925050819055505050565b60065481565b60035481565b6005818154811061047257600080fd5b906000526020600020906003020160009150905080600001549080600101805461049b90610f3d565b80601f01602080910402602001604051908101604052809291908181526020018280546104c790610f3d565b80156105145780601f106104e957610100808354040283529160200191610514565b820191906000526020600020905b8154815290600101906020018083116104f757829003601f168201915b5050505050908060020154905083565b60008054906101000a900473ffffffffffffffffffffffffffffffffffffffff1673ffffffffffffffffffffffffffffffffffffffff163373ffffffffffffffffffffffffffffffffffffffff16146105b2576040517f08c379a00000000000000000000000000000000000000000000000000000000081526004016105a990610d67565b60405180910390fd5b600560405180606001604052806005805490508152602001838152602001600081525090806001815401808255809150506001900390600052602060002090600302016000909190919091506000820151816000015560208201518160010190805190602001906106249291906108b9565b5060408201518160020155505050565b6000600580549050905090565b60025481565b6001805461065490610f3d565b80601f016020809104026020016040519081016040528092919081815260200182805461068090610f3d565b80156106cd5780601f106106a2576101008083540402835291602001916106cd565b820191906000526020600020905b8154815290600101906020018083116106b057829003601f168201915b505050505081565b60008054906101000a900473ffffffffffffffffffffffffffffffffffffffff1681565b60046020528060005260406000206000915090508060000160009054906101000a900460ff16908060000160019054906101000a900460ff16908060010154905083565b60008054906101000a900473ffffffffffffffffffffffffffffffffffffffff1673ffffffffffffffffffffffffffffffffffffffff163373ffffffffffffffffffffffffffffffffffffffff16146107cb576040517f08c379a00000000000000000000000000000000000000000000000000000000081526004016107c290610d67565b60405180910390fd5b6001600460008373ffffffffffffffffffffffffffffffffffffffff1673ffffffffffffffffffffffffffffffffffffffff16815260200190815260200160002060000160006101000a81548160ff02191690831515021790555050565b60008054906101000a900473ffffffffffffffffffffffffffffffffffffffff1673ffffffffffffffffffffffffffffffffffffffff163373ffffffffffffffffffffffffffffffffffffffff16146108b7576040517f08c379a00000000000000000000000000000000000000000000000000000000081526004016108ae90610d67565b60405180910390fd5b565b8280546108c590610f3d565b90600052602060002090601f0160209004810192826108e7576000855561092e565b82601f1061090057805160ff191683800117855561092e565b8280016001018555821561092e579182015b8281111561092d578251825591602001919060010190610912565b5b50905061093b919061093f565b5090565b5b80821115610958576000816000905550600101610940565b5090565b600061096f61096a84610e11565b610de0565b90508281526020810184848401111561098757600080fd5b610992848285610efb565b509392505050565b6000813590506109a98161100d565b92915050565b600082601f8301126109c057600080fd5b81356109d084826020860161095c565b91505092915050565b6000813590506109e881611024565b92915050565b600060208284031215610a0057600080fd5b6000610a0e8482850161099a565b91505092915050565b600060208284031215610a2957600080fd5b600082013567ffffffffffffffff811115610a4357600080fd5b610a4f848285016109af565b91505092915050565b600060208284031215610a6a57600080fd5b6000610a78848285016109d9565b91505092915050565b610a8a81610eb3565b82525050565b610a9981610ec5565b82525050565b6000610aaa82610e41565b610ab48185610e4c565b9350610ac4818560208601610f0a565b610acd81610ffc565b840191505092915050565b6000610ae5601483610e4c565b91507f43616e64696461746f20696e76c3a16c69646f2e0000000000000000000000006000830152602082019050919050565b6000610b25601083610e4c565b91507f566f63c3aa206ac3a120766f746f752e000000000000000000000000000000006000830152602082019050919050565b6000610b65601e83610e4c565b91507f466f726120646f20706572c3ad6f646f20646520766f7461c3a7c3a36f2e00006000830152602082019050919050565b6000610ba5602483610e4c565b91507f566f63c3aa206ec3a36f20657374c3a1206175746f72697a61646f206120766f60008301527f7461722e000000000000000000000000000000000000000000000000000000006020830152604082019050919050565b6000610c0b602a83610e4c565b91507f4170656e6173206f20646f6e6f20706f6465206578656375746172206573746160008301527f2066756ec3a7c3a36f2e000000000000000000000000000000000000000000006020830152604082019050919050565b610c6d81610ef1565b82525050565b6000602082019050610c886000830184610a81565b92915050565b6000606082019050610ca36000830186610a90565b610cb06020830185610a90565b610cbd6040830184610c64565b949350505050565b60006020820190508181036000830152610cdf8184610a9f565b905092915050565b60006020820190508181036000830152610d0081610ad8565b9050919050565b60006020820190508181036000830152610d2081610b18565b9050919050565b60006020820190508181036000830152610d4081610b58565b9050919050565b60006020820190508181036000830152610d6081610b98565b9050919050565b60006020820190508181036000830152610d8081610bfe565b9050919050565b6000602082019050610d9c6000830184610c64565b92915050565b6000606082019050610db76000830186610c64565b8181036020830152610dc98185610a9f565b9050610dd86040830184610c64565b949350505050565b6000604051905081810181811067ffffffffffffffff82111715610e0757610e06610fcd565b5b8060405250919050565b600067ffffffffffffffff821115610e2c57610e2b610fcd565b5b601f19601f8301169050602081019050919050565b600081519050919050565b600082825260208201905092915050565b6000610e6882610ef1565b9150610e7383610ef1565b9250827fffffffffffffffffffffffffffffffffffffffffffffffffffffffffffffffff03821115610ea857610ea7610f6f565b5b828201905092915050565b6000610ebe82610ed1565b9050919050565b60008115159050919050565b600073ffffffffffffffffffffffffffffffffffffffff82169050919050565b6000819050919050565b82818337600083830152505050565b60005b83811015610f28578082015181840152602081019050610f0d565b83811115610f37576000848401525b50505050565b60006002820490506001821680610f5557607f821691505b60208210811415610f6957610f68610f9e565b5b50919050565b7f4e487b7100000000000000000000000000000000000000000000000000000000600052601160045260246000fd5b7f4e487b7100000000000000000000000000000000000000000000000000000000600052602260045260246000fd5b7f4e487b7100000000000000000000000000000000000000000000000000000000600052604160045260246000fd5b6000601f19601f8301169050919050565b61101681610eb3565b811461102157600080fd5b50565b61102d81610ef1565b811461103857600080fd5b5056fea26469706673582212209b0acc735aaed33cd28bd7587862ebf73759d418e5ead33ad8720632feef1b8664736f6c63430008000033",
  "immutableReferences": {},
  "source": "// SPDX-License-Identifier: MIT\npragma solidity ^0.8.0;\n\ncontract Voting {\n    struct Candidate {\n        uint id;\n        string name;\n        uint voteCount;\n    }\n\n    struct Voter {\n        bool authorized;\n        bool voted;\n        uint vote;\n    }\n\n    address public owner;\n    string public electionName;\n    uint public startTime;\n    uint public endTime;\n\n    mapping(address => Voter) public voters;\n    Candidate[] public candidates;\n    uint public totalVotes;\n\n    modifier ownerOnly() {\n        require(\n            msg.sender == owner,\n            unicode\"Apenas o dono pode executar esta funo.\"\n        );\n        _;\n    }\n\n    modifier duringVoting() {\n        require(\n            block.timestamp >= startTime && block.timestamp <= endTime,\n            unicode\"Fora do perodo de votao.\"\n        );\n        _;\n    }\n\n    constructor(string memory _name, uint _duration) {\n        owner = msg.sender;\n        electionName = _name;\n        startTime = block.timestamp;\n        endTime = block.timestamp + _duration;\n    }\n\n    function addCandidate(string memory _name) public ownerOnly {\n        candidates.push(Candidate(candidates.length, _name, 0));\n    }\n\n    function getNumCandidates() public view returns (uint) {\n        return candidates.length;\n    }\n\n    function authorize(address _person) public ownerOnly {\n        voters[_person].authorized = true;\n    }\n\n    function vote(uint _candidateId) public duringVoting {\n        Voter storage sender = voters[msg.sender];\n        require(!sender.voted, unicode\"Voc j votou.\");\n        require(sender.authorized, unicode\"Voc no est autorizado a votar.\");\n        require(_candidateId < candidates.length, unicode\"Candidato invlido.\");\n\n        sender.voted = true;\n        sender.vote = _candidateId;\n\n        candidates[_candidateId].voteCount += 1;\n        totalVotes += 1;\n    }\n\n    function end() public ownerOnly {\n        // Implementar lgica para encerrar a eleio\n    }\n}\n",
  "sourcePath": "/media/kaicolas/D0B4FCE2B4FCCBCA/desenvolvimento/ESTUDOS/votao segura/voting-dapp/contracts/Voting.sol",
  "compiler": {
    "name": "solc",
    "version": "0.8.0+commit.c7dfd78e.Emscripten.clang"
  },
  "schemaVersion": "3.4.16",
  "updatedAt": "2024-09-21T18:58:08.668Z",
  "networkType": "ethereum",
  "devdoc": {
    "kind": "dev",
    "methods": {},
    "version": 1
  },
  "userdoc": {
    "kind": "user",
    "methods": {},
    "version": 1
  }
}