{
  "contractName": "Voting",
  "abi": [
    {
      "inputs": [
        {
          "internalType": "string",
          "name": "_name",
          "type": "string"
        },
        {
          "internalType": "uint256",
          "name": "_duration",
          "type": "uint256"
        }
      ],
      "stateMutability": "nonpayable",
      "type": "constructor"
    },
    {
      "anonymous": false,
      "inputs": [
        {
          "indexed": false,
          "internalType": "address",
          "name": "voter",
          "type": "address"
        }
      ],
      "name": "Authorized",
      "type": "event"
    },
    {
      "anonymous": false,
      "inputs": [
        {
          "indexed": false,
          "internalType": "string",
          "name": "name",
          "type": "string"
        }
      ],
      "name": "CandidateAdded",
      "type": "event"
    },
    {
      "anonymous": false,
      "inputs": [
        {
          "indexed": false,
          "internalType": "address",
          "name": "voter",
          "type": "address"
        },
        {
          "indexed": false,
          "internalType": "uint256",
          "name": "candidateId",
          "type": "uint256"
        }
      ],
      "name": "Voted",
      "type": "event"
    },
    {
      "anonymous": false,
      "inputs": [
        {
          "indexed": false,
          "internalType": "address",
          "name": "voter",
          "type": "address"
        },
        {
          "indexed": false,
          "internalType": "string",
          "name": "reason",
          "type": "string"
        }
      ],
      "name": "VotingFailed",
      "type": "event"
    },
    {
      "inputs": [
        {
          "internalType": "uint256",
          "name": "",
          "type": "uint256"
        }
      ],
      "name": "candidates",
      "outputs": [
        {
          "internalType": "uint256",
          "name": "id",
          "type": "uint256"
        },
        {
          "internalType": "string",
          "name": "name",
          "type": "string"
        },
        {
          "internalType": "uint256",
          "name": "voteCount",
          "type": "uint256"
        }
      ],
      "stateMutability": "view",
      "type": "function",
      "constant": true
    },
    {
      "inputs": [],
      "name": "electionName",
      "outputs": [
        {
          "internalType": "string",
          "name": "",
          "type": "string"
        }
      ],
      "stateMutability": "view",
      "type": "function",
      "constant": true
    },
    {
      "inputs": [],
      "name": "endTime",
      "outputs": [
        {
          "internalType": "uint256",
          "name": "",
          "type": "uint256"
        }
      ],
      "stateMutability": "view",
      "type": "function",
      "constant": true
    },
    {
      "inputs": [],
      "name": "owner",
      "outputs": [
        {
          "internalType": "address",
          "name": "",
          "type": "address"
        }
      ],
      "stateMutability": "view",
      "type": "function",
      "constant": true
    },
    {
      "inputs": [],
      "name": "startTime",
      "outputs": [
        {
          "internalType": "uint256",
          "name": "",
          "type": "uint256"
        }
      ],
      "stateMutability": "view",
      "type": "function",
      "constant": true
    },
    {
      "inputs": [],
      "name": "totalVotes",
      "outputs": [
        {
          "internalType": "uint256",
          "name": "",
          "type": "uint256"
        }
      ],
      "stateMutability": "view",
      "type": "function",
      "constant": true
    },
    {
      "inputs": [
        {
          "internalType": "address",
          "name": "",
          "type": "address"
        }
      ],
      "name": "voters",
      "outputs": [
        {
          "internalType": "bool",
          "name": "authorized",
          "type": "bool"
        },
        {
          "internalType": "bool",
          "name": "voted",
          "type": "bool"
        },
        {
          "internalType": "uint256",
          "name": "vote",
          "type": "uint256"
        }
      ],
      "stateMutability": "view",
      "type": "function",
      "constant": true
    },
    {
      "inputs": [
        {
          "internalType": "string",
          "name": "_name",
          "type": "string"
        }
      ],
      "name": "addCandidate",
      "outputs": [],
      "stateMutability": "nonpayable",
      "type": "function"
    },
    {
      "inputs": [],
      "name": "getNumCandidates",
      "outputs": [
        {
          "internalType": "uint256",
          "name": "",
          "type": "uint256"
        }
      ],
      "stateMutability": "view",
      "type": "function",
      "constant": true
    },
    {
      "inputs": [
        {
          "internalType": "address",
          "name": "_person",
          "type": "address"
        }
      ],
      "name": "authorize",
      "outputs": [],
      "stateMutability": "nonpayable",
      "type": "function"
    },
    {
      "inputs": [
        {
          "internalType": "uint256",
          "name": "_candidateId",
          "type": "uint256"
        }
      ],
      "name": "vote",
      "outputs": [],
      "stateMutability": "nonpayable",
      "type": "function"
    },
    {
      "inputs": [],
      "name": "end",
      "outputs": [],
      "stateMutability": "nonpayable",
      "type": "function"
    }
  ],
  "bytecode": "0x60806040523480156200001157600080fd5b50604051620014fd380380620014fd8339818101604052810190620000379190620001ec565b336000806101000a81548173ffffffffffffffffffffffffffffffffffffffff021916908373ffffffffffffffffffffffffffffffffffffffff16021790555081600190805190602001906200008f929190620000b3565b50426002819055508042620000a59190620002ad565b600381905550505062000427565b828054620000c1906200034a565b90600052602060002090601f016020900481019282620000e5576000855562000131565b82601f106200010057805160ff191683800117855562000131565b8280016001018555821562000131579182015b828111156200013057825182559160200191906001019062000113565b5b50905062000140919062000144565b5090565b5b808211156200015f57600081600090555060010162000145565b5090565b60006200017a62000174846200027a565b62000246565b9050828152602081018484840111156200019357600080fd5b620001a084828562000314565b509392505050565b600082601f830112620001ba57600080fd5b8151620001cc84826020860162000163565b91505092915050565b600081519050620001e6816200040d565b92915050565b600080604083850312156200020057600080fd5b600083015167ffffffffffffffff8111156200021b57600080fd5b6200022985828601620001a8565b92505060206200023c85828601620001d5565b9150509250929050565b6000604051905081810181811067ffffffffffffffff8211171562000270576200026f620003de565b5b8060405250919050565b600067ffffffffffffffff821115620002985762000297620003de565b5b601f19601f8301169050602081019050919050565b6000620002ba826200030a565b9150620002c7836200030a565b9250827fffffffffffffffffffffffffffffffffffffffffffffffffffffffffffffffff03821115620002ff57620002fe62000380565b5b828201905092915050565b6000819050919050565b60005b838110156200033457808201518184015260208101905062000317565b8381111562000344576000848401525b50505050565b600060028204905060018216806200036357607f821691505b602082108114156200037a5762000379620003af565b5b50919050565b7f4e487b7100000000000000000000000000000000000000000000000000000000600052601160045260246000fd5b7f4e487b7100000000000000000000000000000000000000000000000000000000600052602260045260246000fd5b7f4e487b7100000000000000000000000000000000000000000000000000000000600052604160045260246000fd5b62000418816200030a565b81146200042457600080fd5b50565b6110c680620004376000396000f3fe608060405234801561001057600080fd5b50600436106100b45760003560e01c806378e979251161007157806378e979251461017d57806385e8e7a71461019b5780638da5cb5b146101b9578063a3ec138d146101d7578063b6a5d7de14610209578063efbe1c1c14610225576100b4565b80630121b93f146100b95780630d15fd77146100d55780633197cbb6146100f35780633477ee2e14610111578063462e91ec146101435780635c06b06e1461015f575b600080fd5b6100d360048036038101906100ce9190610aae565b61022f565b005b6100dd6104ac565b6040516100ea9190610ddc565b60405180910390f35b6100fb6104b2565b6040516101089190610ddc565b60405180910390f35b61012b60048036038101906101269190610aae565b6104b8565b60405161013a93929190610df7565b60405180910390f35b61015d60048036038101906101589190610a6d565b61057a565b005b61016761068a565b6040516101749190610ddc565b60405180910390f35b610185610697565b6040516101929190610ddc565b60405180910390f35b6101a361069d565b6040516101b09190610d3a565b60405180910390f35b6101c161072b565b6040516101ce9190610c63565b60405180910390f35b6101f160048036038101906101ec9190610a44565b61074f565b60405161020093929190610d03565b60405180910390f35b610223600480360381019061021e9190610a44565b610793565b005b61022d61087f565b005b600254421015801561024357506003544211155b610282576040517f08c379a000000000000000000000000000000000000000000000000000000000815260040161027990610d9c565b60405180910390fd5b6000600460003373ffffffffffffffffffffffffffffffffffffffff1673ffffffffffffffffffffffffffffffffffffffff16815260200190815260200160002090508060000160019054906101000a900460ff161561034e577fde06ad29e8c556f099390f6f7a39eb7a854aa61c355c701fc03f65c8a5db63543360405161030b9190610cac565b60405180910390a16040517f08c379a000000000000000000000000000000000000000000000000000000000815260040161034590610d7c565b60405180910390fd5b60058054905082106103cc577fde06ad29e8c556f099390f6f7a39eb7a854aa61c355c701fc03f65c8a5db6354336040516103899190610c7e565b60405180910390a16040517f08c379a00000000000000000000000000000000000000000000000000000000081526004016103c390610d5c565b60405180910390fd5b60018160000160016101000a81548160ff02191690831515021790555081816001018190555060016005838154811061042e577f4e487b7100000000000000000000000000000000000000000000000000000000600052603260045260246000fd5b9060005260206000209060030201600201600082825461044e9190610eb2565b925050819055506001600660008282546104689190610eb2565b925050819055507f4d99b957a2bc29a30ebd96a7be8e68fe50a3c701db28a91436490b7d53870ca433836040516104a0929190610cda565b60405180910390a15050565b60065481565b60035481565b600581815481106104c857600080fd5b90600052602060002090600302016000915090508060000154908060010180546104f190610f92565b80601f016020809104026020016040519081016040528092919081815260200182805461051d90610f92565b801561056a5780601f1061053f5761010080835404028352916020019161056a565b820191906000526020600020905b81548152906001019060200180831161054d57829003601f168201915b5050505050908060020154905083565b60008054906101000a900473ffffffffffffffffffffffffffffffffffffffff1673ffffffffffffffffffffffffffffffffffffffff163373ffffffffffffffffffffffffffffffffffffffff1614610608576040517f08c379a00000000000000000000000000000000000000000000000000000000081526004016105ff90610dbc565b60405180910390fd5b6005604051806060016040528060058054905081526020018381526020016000815250908060018154018082558091505060019003906000526020600020906003020160009091909190915060008201518160000155602082015181600101908051906020019061067a92919061090f565b5060408201518160020155505050565b6000600580549050905090565b60025481565b600180546106aa90610f92565b80601f01602080910402602001604051908101604052809291908181526020018280546106d690610f92565b80156107235780601f106106f857610100808354040283529160200191610723565b820191906000526020600020905b81548152906001019060200180831161070657829003601f168201915b505050505081565b60008054906101000a900473ffffffffffffffffffffffffffffffffffffffff1681565b60046020528060005260406000206000915090508060000160009054906101000a900460ff16908060000160019054906101000a900460ff16908060010154905083565b60008054906101000a900473ffffffffffffffffffffffffffffffffffffffff1673ffffffffffffffffffffffffffffffffffffffff163373ffffffffffffffffffffffffffffffffffffffff1614610821576040517f08c379a000000000000000000000000000000000000000000000000000000000815260040161081890610dbc565b60405180910390fd5b6001600460008373ffffffffffffffffffffffffffffffffffffffff1673ffffffffffffffffffffffffffffffffffffffff16815260200190815260200160002060000160006101000a81548160ff02191690831515021790555050565b60008054906101000a900473ffffffffffffffffffffffffffffffffffffffff1673ffffffffffffffffffffffffffffffffffffffff163373ffffffffffffffffffffffffffffffffffffffff161461090d576040517f08c379a000000000000000000000000000000000000000000000000000000000815260040161090490610dbc565b60405180910390fd5b565b82805461091b90610f92565b90600052602060002090601f01602090048101928261093d5760008555610984565b82601f1061095657805160ff1916838001178555610984565b82800160010185558215610984579182015b82811115610983578251825591602001919060010190610968565b5b5090506109919190610995565b5090565b5b808211156109ae576000816000905550600101610996565b5090565b60006109c56109c084610e66565b610e35565b9050828152602081018484840111156109dd57600080fd5b6109e8848285610f50565b509392505050565b6000813590506109ff81611062565b92915050565b600082601f830112610a1657600080fd5b8135610a268482602086016109b2565b91505092915050565b600081359050610a3e81611079565b92915050565b600060208284031215610a5657600080fd5b6000610a64848285016109f0565b91505092915050565b600060208284031215610a7f57600080fd5b600082013567ffffffffffffffff811115610a9957600080fd5b610aa584828501610a05565b91505092915050565b600060208284031215610ac057600080fd5b6000610ace84828501610a2f565b91505092915050565b610ae081610f08565b82525050565b610aef81610f1a565b82525050565b6000610b0082610e96565b610b0a8185610ea1565b9350610b1a818560208601610f5f565b610b2381611051565b840191505092915050565b6000610b3b601483610ea1565b91507f43616e64696461746f20696e76c3a16c69646f2e0000000000000000000000006000830152602082019050919050565b6000610b7b601083610ea1565b91507f566f63c3aa206ac3a120766f746f752e000000000000000000000000000000006000830152602082019050919050565b6000610bbb601e83610ea1565b91507f466f726120646f20706572c3ad6f646f20646520766f7461c3a7c3a36f2e00006000830152602082019050919050565b6000610bfb602a83610ea1565b91507f4170656e6173206f20646f6e6f20706f6465206578656375746172206573746160008301527f2066756ec3a7c3a36f2e000000000000000000000000000000000000000000006020830152604082019050919050565b610c5d81610f46565b82525050565b6000602082019050610c786000830184610ad7565b92915050565b6000604082019050610c936000830184610ad7565b8181036020830152610ca481610b2e565b905092915050565b6000604082019050610cc16000830184610ad7565b8181036020830152610cd281610b6e565b905092915050565b6000604082019050610cef6000830185610ad7565b610cfc6020830184610c54565b9392505050565b6000606082019050610d186000830186610ae6565b610d256020830185610ae6565b610d326040830184610c54565b949350505050565b60006020820190508181036000830152610d548184610af5565b905092915050565b60006020820190508181036000830152610d7581610b2e565b9050919050565b60006020820190508181036000830152610d9581610b6e565b9050919050565b60006020820190508181036000830152610db581610bae565b9050919050565b60006020820190508181036000830152610dd581610bee565b9050919050565b6000602082019050610df16000830184610c54565b92915050565b6000606082019050610e0c6000830186610c54565b8181036020830152610e1e8185610af5565b9050610e2d6040830184610c54565b949350505050565b6000604051905081810181811067ffffffffffffffff82111715610e5c57610e5b611022565b5b8060405250919050565b600067ffffffffffffffff821115610e8157610e80611022565b5b601f19601f8301169050602081019050919050565b600081519050919050565b600082825260208201905092915050565b6000610ebd82610f46565b9150610ec883610f46565b9250827fffffffffffffffffffffffffffffffffffffffffffffffffffffffffffffffff03821115610efd57610efc610fc4565b5b828201905092915050565b6000610f1382610f26565b9050919050565b60008115159050919050565b600073ffffffffffffffffffffffffffffffffffffffff82169050919050565b6000819050919050565b82818337600083830152505050565b60005b83811015610f7d578082015181840152602081019050610f62565b83811115610f8c576000848401525b50505050565b60006002820490506001821680610faa57607f821691505b60208210811415610fbe57610fbd610ff3565b5b50919050565b7f4e487b7100000000000000000000000000000000000000000000000000000000600052601160045260246000fd5b7f4e487b7100000000000000000000000000000000000000000000000000000000600052602260045260246000fd5b7f4e487b7100000000000000000000000000000000000000000000000000000000600052604160045260246000fd5b6000601f19601f8301169050919050565b61106b81610f08565b811461107657600080fd5b50565b61108281610f46565b811461108d57600080fd5b5056fea2646970667358221220174040c51bab3a1302c3c6c78a4417a305eaced964ad7a22c44393ad8918315e64736f6c63430008000033",
  "immutableReferences": {},
  "source": "// SPDX-License-Identifier: MIT\npragma solidity ^0.8.0;\n\ncontract Voting {\n    struct Candidate {\n        uint id;\n        string name;\n        uint voteCount;\n    }\n\n    struct Voter {\n        bool authorized;\n        bool voted;\n        uint vote;\n    }\n\n    address public owner;\n    string public electionName;\n    uint public startTime;\n    uint public endTime;\n\n    mapping(address => Voter) public voters;\n    Candidate[] public candidates;\n    uint public totalVotes;\n\n    event Voted(address voter, uint candidateId);\n    event CandidateAdded(string name);\n    event Authorized(address voter);\n    event VotingFailed(address voter, string reason);\n\n    modifier ownerOnly() {\n        require(\n            msg.sender == owner,\n            unicode\"Apenas o dono pode executar esta funo.\"\n        );\n        _;\n    }\n\n    modifier duringVoting() {\n        require(\n            block.timestamp >= startTime && block.timestamp <= endTime,\n            unicode\"Fora do perodo de votao.\"\n        );\n        _;\n    }\n\n    constructor(string memory _name, uint _duration) {\n        owner = msg.sender;\n        electionName = _name;\n        startTime = block.timestamp;\n        endTime = block.timestamp + _duration;\n    }\n\n    function addCandidate(string memory _name) public ownerOnly {\n        candidates.push(Candidate(candidates.length, _name, 0));\n    }\n\n    function getNumCandidates() public view returns (uint) {\n        return candidates.length;\n    }\n\n    function authorize(address _person) public ownerOnly {\n        voters[_person].authorized = true;\n    }\n\n    function vote(uint _candidateId) public duringVoting {\n        Voter storage sender = voters[msg.sender];\n        if (sender.voted) {\n            emit VotingFailed(msg.sender, unicode\"Voc j votou.\");\n            revert(unicode\"Voc j votou.\");\n        }\n        if (_candidateId >= candidates.length) {\n            emit VotingFailed(msg.sender, unicode\"Candidato invlido.\");\n            revert(unicode\"Candidato invlido.\");\n        }\n\n        sender.voted = true;\n        sender.vote = _candidateId;\n\n        candidates[_candidateId].voteCount += 1;\n        totalVotes += 1;\n\n        emit Voted(msg.sender, _candidateId);\n    }\n\n    function end() public ownerOnly {\n        // Implementar lgica para encerrar a eleio\n    }\n}\n",
  "sourcePath": "/media/kaicolas/D0B4FCE2B4FCCBCA/desenvolvimento/ESTUDOS/votao segura/voting-dapp/contracts/Voting.sol",
  "compiler": {
    "name": "solc",
    "version": "0.8.0+commit.c7dfd78e.Emscripten.clang"
  },
  "schemaVersion": "3.4.16",
  "updatedAt": "2024-09-22T05:19:00.691Z",
  "networkType": "ethereum",
  "devdoc": {
    "kind": "dev",
    "methods": {},
    "version": 1
  },
  "userdoc": {
    "kind": "user",
    "methods": {},
    "version": 1
  }
}