{
  "contractName": "Voting",
  "abi": [
    {
      "inputs": [
        {
          "internalType": "string",
          "name": "_name",
          "type": "string"
        }
      ],
      "stateMutability": "nonpayable",
      "type": "constructor"
    },
    {
      "inputs": [
        {
          "internalType": "uint256",
          "name": "",
          "type": "uint256"
        }
      ],
      "name": "candidates",
      "outputs": [
        {
          "internalType": "uint256",
          "name": "id",
          "type": "uint256"
        },
        {
          "internalType": "string",
          "name": "name",
          "type": "string"
        },
        {
          "internalType": "uint256",
          "name": "voteCount",
          "type": "uint256"
        }
      ],
      "stateMutability": "view",
      "type": "function",
      "constant": true
    },
    {
      "inputs": [],
      "name": "electionName",
      "outputs": [
        {
          "internalType": "string",
          "name": "",
          "type": "string"
        }
      ],
      "stateMutability": "view",
      "type": "function",
      "constant": true
    },
    {
      "inputs": [],
      "name": "owner",
      "outputs": [
        {
          "internalType": "address",
          "name": "",
          "type": "address"
        }
      ],
      "stateMutability": "view",
      "type": "function",
      "constant": true
    },
    {
      "inputs": [],
      "name": "totalVotes",
      "outputs": [
        {
          "internalType": "uint256",
          "name": "",
          "type": "uint256"
        }
      ],
      "stateMutability": "view",
      "type": "function",
      "constant": true
    },
    {
      "inputs": [
        {
          "internalType": "address",
          "name": "",
          "type": "address"
        }
      ],
      "name": "voters",
      "outputs": [
        {
          "internalType": "bool",
          "name": "authorized",
          "type": "bool"
        },
        {
          "internalType": "bool",
          "name": "voted",
          "type": "bool"
        },
        {
          "internalType": "uint256",
          "name": "vote",
          "type": "uint256"
        }
      ],
      "stateMutability": "view",
      "type": "function",
      "constant": true
    },
    {
      "inputs": [
        {
          "internalType": "string",
          "name": "_name",
          "type": "string"
        }
      ],
      "name": "addCandidate",
      "outputs": [],
      "stateMutability": "nonpayable",
      "type": "function"
    },
    {
      "inputs": [],
      "name": "getNumCandidates",
      "outputs": [
        {
          "internalType": "uint256",
          "name": "",
          "type": "uint256"
        }
      ],
      "stateMutability": "view",
      "type": "function",
      "constant": true
    },
    {
      "inputs": [
        {
          "internalType": "address",
          "name": "_person",
          "type": "address"
        }
      ],
      "name": "authorize",
      "outputs": [],
      "stateMutability": "nonpayable",
      "type": "function"
    },
    {
      "inputs": [
        {
          "internalType": "uint256",
          "name": "_candidateId",
          "type": "uint256"
        }
      ],
      "name": "vote",
      "outputs": [],
      "stateMutability": "nonpayable",
      "type": "function"
    },
    {
      "inputs": [],
      "name": "end",
      "outputs": [],
      "stateMutability": "nonpayable",
      "type": "function"
    }
  ],
  "bytecode": "0x60806040523480156200001157600080fd5b506040516200129f3803806200129f8339818101604052810190620000379190620001b9565b336000806101000a81548173ffffffffffffffffffffffffffffffffffffffff021916908373ffffffffffffffffffffffffffffffffffffffff16021790555080600190805190602001906200008f92919062000097565b50506200032f565b828054620000a5906200029b565b90600052602060002090601f016020900481019282620000c9576000855562000115565b82601f10620000e457805160ff191683800117855562000115565b8280016001018555821562000115579182015b8281111562000114578251825591602001919060010190620000f7565b5b50905062000124919062000128565b5090565b5b808211156200014357600081600090555060010162000129565b5090565b60006200015e620001588462000232565b620001fe565b9050828152602081018484840111156200017757600080fd5b6200018484828562000265565b509392505050565b600082601f8301126200019e57600080fd5b8151620001b084826020860162000147565b91505092915050565b600060208284031215620001cc57600080fd5b600082015167ffffffffffffffff811115620001e757600080fd5b620001f5848285016200018c565b91505092915050565b6000604051905081810181811067ffffffffffffffff8211171562000228576200022762000300565b5b8060405250919050565b600067ffffffffffffffff82111562000250576200024f62000300565b5b601f19601f8301169050602081019050919050565b60005b838110156200028557808201518184015260208101905062000268565b8381111562000295576000848401525b50505050565b60006002820490506001821680620002b457607f821691505b60208210811415620002cb57620002ca620002d1565b5b50919050565b7f4e487b7100000000000000000000000000000000000000000000000000000000600052602260045260246000fd5b7f4e487b7100000000000000000000000000000000000000000000000000000000600052604160045260246000fd5b610f60806200033f6000396000f3fe608060405234801561001057600080fd5b506004361061009e5760003560e01c806385e8e7a71161006657806385e8e7a7146101495780638da5cb5b14610167578063a3ec138d14610185578063b6a5d7de146101b7578063efbe1c1c146101d35761009e565b80630121b93f146100a35780630d15fd77146100bf5780633477ee2e146100dd578063462e91ec1461010f5780635c06b06e1461012b575b600080fd5b6100bd60048036038101906100b891906109a7565b6101dd565b005b6100c76103b1565b6040516100d49190610c76565b60405180910390f35b6100f760048036038101906100f291906109a7565b6103b7565b60405161010693929190610c91565b60405180910390f35b61012960048036038101906101249190610966565b610479565b005b610133610589565b6040516101409190610c76565b60405180910390f35b610151610596565b60405161015e9190610bd4565b60405180910390f35b61016f610624565b60405161017c9190610b82565b60405180910390f35b61019f600480360381019061019a919061093d565b610648565b6040516101ae93929190610b9d565b60405180910390f35b6101d160048036038101906101cc919061093d565b61068c565b005b6101db610778565b005b6000600260003373ffffffffffffffffffffffffffffffffffffffff1673ffffffffffffffffffffffffffffffffffffffff16815260200190815260200160002090508060000160019054906101000a900460ff1615610272576040517f08c379a000000000000000000000000000000000000000000000000000000000815260040161026990610c16565b60405180910390fd5b8060000160009054906101000a900460ff166102c3576040517f08c379a00000000000000000000000000000000000000000000000000000000081526004016102ba90610c36565b60405180910390fd5b600380549050821061030a576040517f08c379a000000000000000000000000000000000000000000000000000000000815260040161030190610bf6565b60405180910390fd5b60018160000160016101000a81548160ff02191690831515021790555081816001018190555060016003838154811061036c577f4e487b7100000000000000000000000000000000000000000000000000000000600052603260045260246000fd5b9060005260206000209060030201600201600082825461038c9190610d4c565b925050819055506001600460008282546103a69190610d4c565b925050819055505050565b60045481565b600381815481106103c757600080fd5b90600052602060002090600302016000915090508060000154908060010180546103f090610e2c565b80601f016020809104026020016040519081016040528092919081815260200182805461041c90610e2c565b80156104695780601f1061043e57610100808354040283529160200191610469565b820191906000526020600020905b81548152906001019060200180831161044c57829003601f168201915b5050505050908060020154905083565b60008054906101000a900473ffffffffffffffffffffffffffffffffffffffff1673ffffffffffffffffffffffffffffffffffffffff163373ffffffffffffffffffffffffffffffffffffffff1614610507576040517f08c379a00000000000000000000000000000000000000000000000000000000081526004016104fe90610c56565b60405180910390fd5b60036040518060600160405280600380549050815260200183815260200160008152509080600181540180825580915050600190039060005260206000209060030201600090919091909150600082015181600001556020820151816001019080519060200190610579929190610808565b5060408201518160020155505050565b6000600380549050905090565b600180546105a390610e2c565b80601f01602080910402602001604051908101604052809291908181526020018280546105cf90610e2c565b801561061c5780601f106105f15761010080835404028352916020019161061c565b820191906000526020600020905b8154815290600101906020018083116105ff57829003601f168201915b505050505081565b60008054906101000a900473ffffffffffffffffffffffffffffffffffffffff1681565b60026020528060005260406000206000915090508060000160009054906101000a900460ff16908060000160019054906101000a900460ff16908060010154905083565b60008054906101000a900473ffffffffffffffffffffffffffffffffffffffff1673ffffffffffffffffffffffffffffffffffffffff163373ffffffffffffffffffffffffffffffffffffffff161461071a576040517f08c379a000000000000000000000000000000000000000000000000000000000815260040161071190610c56565b60405180910390fd5b6001600260008373ffffffffffffffffffffffffffffffffffffffff1673ffffffffffffffffffffffffffffffffffffffff16815260200190815260200160002060000160006101000a81548160ff02191690831515021790555050565b60008054906101000a900473ffffffffffffffffffffffffffffffffffffffff1673ffffffffffffffffffffffffffffffffffffffff163373ffffffffffffffffffffffffffffffffffffffff1614610806576040517f08c379a00000000000000000000000000000000000000000000000000000000081526004016107fd90610c56565b60405180910390fd5b565b82805461081490610e2c565b90600052602060002090601f016020900481019282610836576000855561087d565b82601f1061084f57805160ff191683800117855561087d565b8280016001018555821561087d579182015b8281111561087c578251825591602001919060010190610861565b5b50905061088a919061088e565b5090565b5b808211156108a757600081600090555060010161088f565b5090565b60006108be6108b984610d00565b610ccf565b9050828152602081018484840111156108d657600080fd5b6108e1848285610dea565b509392505050565b6000813590506108f881610efc565b92915050565b600082601f83011261090f57600080fd5b813561091f8482602086016108ab565b91505092915050565b60008135905061093781610f13565b92915050565b60006020828403121561094f57600080fd5b600061095d848285016108e9565b91505092915050565b60006020828403121561097857600080fd5b600082013567ffffffffffffffff81111561099257600080fd5b61099e848285016108fe565b91505092915050565b6000602082840312156109b957600080fd5b60006109c784828501610928565b91505092915050565b6109d981610da2565b82525050565b6109e881610db4565b82525050565b60006109f982610d30565b610a038185610d3b565b9350610a13818560208601610df9565b610a1c81610eeb565b840191505092915050565b6000610a34601483610d3b565b91507f43616e64696461746f20696e76c3a16c69646f2e0000000000000000000000006000830152602082019050919050565b6000610a74601083610d3b565b91507f566f63c3aa206ac3a120766f746f752e000000000000000000000000000000006000830152602082019050919050565b6000610ab4602483610d3b565b91507f566f63c3aa206ec3a36f20657374c3a1206175746f72697a61646f206120766f60008301527f7461722e000000000000000000000000000000000000000000000000000000006020830152604082019050919050565b6000610b1a602a83610d3b565b91507f4170656e6173206f20646f6e6f20706f6465206578656375746172206573746160008301527f2066756ec3a7c3a36f2e000000000000000000000000000000000000000000006020830152604082019050919050565b610b7c81610de0565b82525050565b6000602082019050610b9760008301846109d0565b92915050565b6000606082019050610bb260008301866109df565b610bbf60208301856109df565b610bcc6040830184610b73565b949350505050565b60006020820190508181036000830152610bee81846109ee565b905092915050565b60006020820190508181036000830152610c0f81610a27565b9050919050565b60006020820190508181036000830152610c2f81610a67565b9050919050565b60006020820190508181036000830152610c4f81610aa7565b9050919050565b60006020820190508181036000830152610c6f81610b0d565b9050919050565b6000602082019050610c8b6000830184610b73565b92915050565b6000606082019050610ca66000830186610b73565b8181036020830152610cb881856109ee565b9050610cc76040830184610b73565b949350505050565b6000604051905081810181811067ffffffffffffffff82111715610cf657610cf5610ebc565b5b8060405250919050565b600067ffffffffffffffff821115610d1b57610d1a610ebc565b5b601f19601f8301169050602081019050919050565b600081519050919050565b600082825260208201905092915050565b6000610d5782610de0565b9150610d6283610de0565b9250827fffffffffffffffffffffffffffffffffffffffffffffffffffffffffffffffff03821115610d9757610d96610e5e565b5b828201905092915050565b6000610dad82610dc0565b9050919050565b60008115159050919050565b600073ffffffffffffffffffffffffffffffffffffffff82169050919050565b6000819050919050565b82818337600083830152505050565b60005b83811015610e17578082015181840152602081019050610dfc565b83811115610e26576000848401525b50505050565b60006002820490506001821680610e4457607f821691505b60208210811415610e5857610e57610e8d565b5b50919050565b7f4e487b7100000000000000000000000000000000000000000000000000000000600052601160045260246000fd5b7f4e487b7100000000000000000000000000000000000000000000000000000000600052602260045260246000fd5b7f4e487b7100000000000000000000000000000000000000000000000000000000600052604160045260246000fd5b6000601f19601f8301169050919050565b610f0581610da2565b8114610f1057600080fd5b50565b610f1c81610de0565b8114610f2757600080fd5b5056fea2646970667358221220c8cc23f74e0f18e56c1cdc53e7a8432fb84dbbc3c8b445bdb4f0da9896be638e64736f6c63430008000033",
  "immutableReferences": {},
  "source": "// SPDX-License-Identifier: MIT\npragma solidity ^0.8.0;\n\ncontract Voting {\n    struct Candidate {\n        uint id;\n        string name;\n        uint voteCount;\n    }\n\n    struct Voter {\n        bool authorized;\n        bool voted;\n        uint vote;\n    }\n\n    address public owner;\n    string public electionName;\n\n    mapping(address => Voter) public voters;\n    Candidate[] public candidates;\n    uint public totalVotes;\n\n    modifier ownerOnly() {\n        require(\n            msg.sender == owner,\n            unicode\"Apenas o dono pode executar esta funo.\"\n        );\n        _;\n    }\n\n    constructor(string memory _name) {\n        owner = msg.sender;\n        electionName = _name;\n    }\n\n    function addCandidate(string memory _name) public ownerOnly {\n        candidates.push(Candidate(candidates.length, _name, 0));\n    }\n\n    function getNumCandidates() public view returns (uint) {\n        return candidates.length;\n    }\n\n    function authorize(address _person) public ownerOnly {\n        voters[_person].authorized = true;\n    }\n\n    function vote(uint _candidateId) public {\n        Voter storage sender = voters[msg.sender];\n        require(!sender.voted, unicode\"Voc j votou.\");\n        require(sender.authorized, unicode\"Voc no est autorizado a votar.\");\n        require(_candidateId < candidates.length, unicode\"Candidato invlido.\");\n\n        sender.voted = true;\n        sender.vote = _candidateId;\n\n        candidates[_candidateId].voteCount += 1;\n        totalVotes += 1;\n    }\n\n    function end() public ownerOnly {\n        // Implementar lgica para encerrar a eleio, se necessrio\n    }\n}\n",
  "sourcePath": "/media/kaicolas/D0B4FCE2B4FCCBCA/desenvolvimento/ESTUDOS/votao segura/voting-dapp/contracts/Voting.sol",
  "compiler": {
    "name": "solc",
    "version": "0.8.0+commit.c7dfd78e.Emscripten.clang"
  },
  "schemaVersion": "3.4.16",
  "updatedAt": "2024-09-21T17:28:25.470Z",
  "networkType": "ethereum",
  "devdoc": {
    "kind": "dev",
    "methods": {},
    "version": 1
  },
  "userdoc": {
    "kind": "user",
    "methods": {},
    "version": 1
  }
}